:060000000A128A113D2ED8
:100C7A0083010A128A11412E0030A800A70002300F
:100C8A00A6000030A5009030831687000F3086003A
:100C9A0081138312861206120C3097006430831671
:100CAA009200043083129200CE3083169F004030A7
:100CBA0083129F003230940007140A128A117F2689
:100CCA000A128A1106196E2E0A128A1153270A125B
:100CDA008A118618752E0A128A11B9260A128A11E1
:100CEA000618672E0030A800A7000230A6000030C0
:100CFA00A500672E0714FD01FF30F6270A128A1194
:100D0A00FD0A0A307D02031C812E07106430FD00A3
:100D1A00982EFD080319A52E0714FF30F6270A128C
:100D2A008A110710FD03F101F201F301F401953074
:100D3A00F50000301B270A128A11013A031D8E2E74
:100D4A00FD08031DA92E0616F101F201F301F401B3
:100D5A00FF30F50001301B270A128A110038031DE3
:100D6A00A92E94100714080007102808F400270871
:100D7A00F3002608F2002508F100FF30F5001230D2
:100D8A001B270A128A11A000A10121040319052FA9
:100D9A000616052FFF30F6270A128A11FE3A031D9E
:100DAA00CF2EA201A3018C1CD82EFF30F6270A12DF
:100DBA008A11A400241CE52E831203139716E82E29
:100DCA008312031397120310240C95008C10A20AA5
:100DDA000319A30A02302302003003192202031C5A
:100DEA00D82EFF30F6270A128A11FF30F6270A1288
:100DFA008A110230A60701300318A7070318A80AA8
:100E0A00061C092F8619CF2EF101F201F301F40114
:100E1A00FF30F5000C301B270A128A11FF30F62723
:100E2A000A128A11FF30F62707140800FA00FF3069
:100E3A00F6270A128A117A0840387F39F6270A12E9
:100E4A008A11F601F701F8017408F900F600F701B2
:100E5A00F801F901F6270A128A117308F6270A120D
:100E6A008A117208F6270A128A117108F6270A12DD
:100E7A008A1175080138F6270A128A11FC01FF3017
:100E8A00F6270A128A11FB00FF3A031D512FFC0AAA
:100E9A000A307C02031C442F7B08080007101F1429
:100EAA0086162808F4002708F3002608F200250809
:100EBA00F100FF30F50019301B270A128A11A00031
:100ECA00A101210403196C2F06161F108612FF3088
:100EDA00F6270A128A11FF30F6270A128A11FF3002
:100EEA00F6270A128A11DB2FFC30F6270A128A111A
:100EFA00A201A3011F158C1C802F83161E08F6273A
:100F0A000A128A118C1083161E1C8F2F8312031348
:100F1A009716922F831203139712831603101E0C2F
:100F2A0083129500A20A0319A30A02302302003091
:100F3A0003192202031C7F2FFF30F6270A128A1197
:100F4A00FF30F6270A128A11FF30F6270A128A1191
:100F5A000F39A000A101053A2104031DCC2F10303E
:100F6A00A2002730A300FF30F6270A128A11A00038
:100F7A00A1012104031DCD2F0130A2020030031C60
:100F8A00A303A302230822040319CD2FB82F0616A0
:100F9A00FF30F6270A128A11FF3A031DCD2F0230BD
:100FAA00A60701300318A7070318A80A061CDF2F93
:100FBA008619792FFD30F6270A128A11FF30F62793
:100FCA000A128A11FF30F6270A128A11FF30F62711
:100FDA000A128A11FF3A031DEB2F07141F108612FB
:100FEA000800F0007008831293008316141CFA2F6D
:060FFA0083121308080039
:02400E007A3FF7
:00000001FF
