:060000000A128A11C82D4E
:100B9000A001A101A201A301A40183010A128A11EB
:100BA000D12D9030831687000F3086008113831279
:100BB0008612061207130C309700643083169200D9
:100BC000043083129200CE3083169F00403083128F
:100BD0009F003230940007140A128A11B0260A12BC
:100BE0008A1124080319FA2D0A30A000A101A201DC
:100BF000A301012E0030A300A2001430A100003098
:100C0000A0000619082E0A128A1144270A128A1116
:100C100086180F2E0A128A1112260A128A11061835
:100C2000012EF12D0710F5270A128A1112307826AD
:100C30000A128A11A500A60126040319622E0616BF
:100C4000622EFF30EB270A128A11FE3A031D212E75
:100C5000A701A8018C1C2A2EFF30EB270A128A114B
:100C6000A900291C372E8312031397163A2E8312DC
:100C7000031397120310290C95008C10A70A03196F
:100C8000A80A02302802003003192702031C2A2E6A
:100C9000FF30EB270A128A11FF30EB270A128A1164
:100CA000240803195B2EA00A0319A10A0319A20A3A
:100CB0000319A30A622E0230A10701300318A2070C
:100CC0000318A30A061C662E8619212EF101F201D3
:100CD000F301F401FF30F5000C3078260A128A1176
:100CE000FF30EB270A128A11FF30EB2707140800A8
:100CF000FA00FF30EB270A128A117A0840387F3950
:100D0000EB270A128A11F601F701F8017408F900BD
:100D1000F600F701F801F901EB270A128A117308AE
:100D2000EB270A128A117208EB270A128A1171083E
:100D3000EB270A128A1175080138EB270A128A116B
:100D4000FC01FF30EB270A128A11FB00FF3A031D5A
:100D5000AE2EFC0A0A307C02031CA12E7B08080080
:100D60000714A901FF30EB270A128A11A90A0A30D9
:100D70002902031CB22E07106430A900C92EA9084D
:100D80000319D62E0714FF30EB270A128A11071019
:100D9000A903F101F201F301F4019530F5000030EF
:100DA00078260A128A11013A031DBF2EA9080319D9
:100DB0000616F401F3010130F200AA30F100873089
:100DC000F500083078260A128A11013A031D1B2FFC
:100DD000FF30EB270A128A11A500FF30EB270A1219
:100DE0008A11A600FF30EB270A128A11A700FF30F4
:100DF000EB270A128A11A800270B1C2F2808AA3AF1
:100E0000031D1C2FF101F201F301F401FF30F50085
:100E1000373078260A128A114030F400F301F201CB
:100E2000F101FF30F500293078260A128A110038C6
:100E300003191C2F022F0616F101F201F301F40130
:100E4000FF30F5003A3078260A128A110038031D67
:100E5000412FFF30EB270A128A11A500FF30EB2744
:100E60000A128A11A600FF30EB270A128A11A70086
:100E7000FF30EB27A8002508A4004030A405251B5F
:100E8000071794100714080007101F148616F5277B
:100E90000A128A11193078260A128A11A500A601B1
:100EA00026040319562F06161F108612FF30EB2753
:100EB0000A128A11FF30EB270A128A11FF30EB2742
:100EC0000A128A11D02FFC30EB270A128A11A701CF
:100ED000A8011F158C1C6A2F83161E08EB270A1207
:100EE0008A118C1083161E1C792F831203139716F8
:100EF0007C2F831203139712831603101E0C831288
:100F00009500A70A0319A80A023028020030031925
:100F10002702031C692FFF30EB270A128A11FF30CA
:100F2000EB270A128A11FF30EB270A128A110F39B8
:100F3000A500A601053A2604031DB62F1030A70010
:100F40002730A800FF30EB270A128A11A500A6015E
:100F50002604031DB72F0130A7020030031CA8038D
:100F6000A802280827040319B72FA22F0616FF305E
:100F7000EB270A128A11FF3A031DB72F2408031921
:100F8000C92FA00A0319A10A0319A20A0319A30A67
:100F9000D02F0230A10701300318A2070318A30ABB
:100FA000061CD42F8619632FFD30EB270A128A11F5
:100FB000FF30EB270A128A11FF30EB270A128A1141
:100FC000FF30EB270A128A11FF3A031DE02F0714A6
:100FD0001F1086120800F000700883129300831619
:100FE000141CEF2F8312130808002308F4002208B2
:100FF000F3002108F2002008F100FF30F50008009E
:02400E007A3FF7
:00000001FF
