:060000000A128A110D2D09
:100A1A00B501B601B701B801B901FF30BA00BB0090
:100A2A00BC00BD0083010A128A111B2D10308316E7
:100A3A0087000F308600811383128612061207136D
:100A4A0087130C30970064308316920004308312A7
:100A5A009200CE3083169F00403083129F003230BE
:100A6A00940007140A128A1168260A128A11390890
:100A7A000319452D0A30B500B601B701B8014C2D4E
:100A8A000030B800B7001430B6000030B5000619BF
:100A9A00532D0A128A11FC260A128A118312031391
:100AAA0086185C2D0A128A115F250A128A11061805
:100ABA004C2D3C2D0130BF270A128A110313A300C3
:100ACA00A201A101A0010230BF270A128A11031351
:100ADA00A400A501A601A7012508A7002408A600CD
:100AEA00A501A4010330BF270A128A110313A80023
:100AFA00A901AA01AB012A08AB002908AA00280803
:100B0A00A900A8010430BF270A128A110313AC00F6
:100B1A00AD01AE01AF01A8042D08A9042E08AA044C
:100B2A002F08AB042808A4042908A5042A08A60447
:100B3A002B08A70420082404BA0021082504BB00B6
:100B4A0022082604BC0023082704BD0087170710C3
:100B5A00F2270A128A11123030260A128A11B000BC
:100B6A00B10131040319192E0616192EFF30B527C3
:100B7A000A128A11FE3A031DBB2DB201B3018C1C65
:100B8A00C42DFF30B5270A128A11B400341CD02DA7
:100B9A00FD279716D22DFD2797120310340C9500C6
:100BAA008C10B20A0319B30A023033020030031957
:100BBA003202031CC42DFF30B5270A128A11FF30F6
:100BCA00B5270A128A1139080319F32DB50A031930
:100BDA00B60A0319B70A0319B80AFA2D0230B6077A
:100BEA0001300318B7070318B80A38083D02031D75
:100BFA00082E37083C02031D082E36083B02031D47
:100C0A00082E35083A020318192E39080319132E2B
:100C1A000A30B500B601B701B8011D2EB801B701F7
:100C2A001430B600B5011D2E061C1D2E8619BB2DCB
:100C3A00F101F201F301F401FF30F5000C30302626
:100C4A000A128A11FF30B5270A128A11FF30B52716
:100C5A00071487130800FA00FF30B5270A128A1111
:100C6A007A0840387F39B5270A128A11F601F70146
:100C7A00F8017408F900F600F701F801F901B5273F
:100C8A000A128A117308B5270A128A117208B5273F
:100C9A000A128A117108B5270A128A1175080138D1
:100CAA00B5270A128A11FC01FF30B5270A128A11E8
:100CBA00FB00FF3A031D662EFC0A0A307C02031C65
:100CCA00592E7B0808000714A401FF30B5270A1221
:100CDA008A11A40A0A302402031C6A2E07106430FF
:100CEA00A400812EA40803198E2E0714FF30B527FD
:100CFA000A128A110710A403F101F201F301F401A7
:100D0A009530F500003030260A128A11013A031D87
:100D1A00772EA40803190616F401F3010130F20034
:100D2A00AA30F1008730F500083030260A128A11FD
:100D3A00013A031DD32EFF30B5270A128A11A000EB
:100D4A00FF30B5270A128A11A100FF30B5270A120F
:100D5A008A11A200FF30B5270A128A11A300220BBA
:100D6A00D42E2308AA3A031DD42EF101F201F3016D
:100D7A00F401FF30F500373030260A128A1140306C
:100D8A00F400F301F201F101FF30F50029303026B9
:100D9A000A128A1100380319D42EBA2E0616F10146
:100DAA00F201F301F401FF30F5003A3030260A125D
:100DBA008A110038031DF92EFF30B5270A128A114D
:100DCA00A000FF30B5270A128A11A100FF30B5270B
:100DDA000A128A11A200FF30B527A3002008B90021
:100DEA004030B905201B0717941007140800071094
:100DFA001F148616F2270A128A11193030260A128F
:100E0A008A11A400A501250403190E2F06161F1026
:100E1A008612FF30B5270A128A11FF30B5270A1247
:100E2A008A11FF30B5270A128A11792FFC30B527AB
:100E3A000A128A11A601A7011F158C1C222F8316DC
:100E4A001E08B5270A128A118C10A60A0319A70AC6
:100E5A0002302702003003192602031C212FFF301B
:100E6A00B5270A128A11FF30B5270A128A11FF30F4
:100E7A00B5270A128A110F39A400A501053A2504DB
:100E8A00031D5F2F1030A6002730A700FF30B527BB
:100E9A000A128A11A400A5012504031D602F01303E
:100EAA00A6020030031CA703A70227082604031979
:100EBA00602F4B2F0616FF30B5270A128A11FF3A08
:100ECA00031D602F39080319722FB50A0319B60AD0
:100EDA000319B70A0319B80A792F0230B607013085
:100EEA000318B7070318B80A061C7D2F86191B2F8B
:100EFA00FD30B5270A128A11FF30B5270A128A1166
:100F0A00FF30B5270A128A11FF30B5270A128A1153
:100F1A00FF3A031D892F07141F108612A001A10191
:100F2A00A2013808A300A000A101A201A301200880
:100F3A00F0000130D7270A128A11FD273708F0007E
:100F4A000230D7270A128A11FD273608F00003302B
:100F5A00D7270A128A11FD273508F0000430D72F47
:100F6A00F0007008831293008316141CB92F8312A1
:100F7A0013080800F2006400831603178C18C02FA8
:100F8A00720883128D003F3083168C050C140310EF
:100F9A000C180314003003180130F000F101831219
:100FAA000C080800F100831603178C18D82F710853
:100FBA0083128D0070088C003F3083168C05031055
:100FCA008B1B03148B130C1555308D00AA308D0022
:100FDA008C140C1103188B1708003808F400370812
:100FEA00F3003608F2003508F100FF30F50008007A
:060FFA008312031308003E
:02400E007A3FF7
:00000001FF
