:040000008A11E02958
:1003B00064008001840A0406031900340406D92964
:1003C0008313583084006D308A11D8218A11A030EF
:1003D0008400B4308A11D82183018A11EF29FD01EC
:1003E000FD0AFC0103179E019F0140308316031391
:1003F000870006308500BF308600811315158312F3
:100400000317951695170313871007120C309700E2
:100410003F308316920004308312920083168112BB
:10042000811532308312940007158A1118258A111C
:100430006A0803191F2AEB01EB0AEC01222AEB01DF
:100440000230EC008A119F258A1183126508023A56
:100450006404031D8714861EBA2A2B2A7D08AC006B
:10046000AD0105300310AC0DAD0DFF3E031D322A6A
:100470001430AC070318AD0A7C08AE008A11BD2207
:100480008A11831263086204610460040319B72AA5
:100490000130D000D101D201D3016308F30062081A
:1004A000F2006108F1006008F000FE30F007FF3054
:1004B000031CF107031CF207031CF3076908F4008F
:1004C000F501F601F7018A11EB238A1170085C0728
:1004D000D4000030031801307107D6010318D60A82
:1004E0005D07D5000318D60A72085607D70103180E
:1004F000D70A5E07D6000318D70A730857075F07A5
:10050000D7005408D00755080318550FD1075608CF
:100510000318560FD20757080318570AD307530872
:10052000F3005208F2005108F1005008F0006B0887
:10053000F4006C08F500F601F7018A11EB238A112B
:1005400073088316B3007208B2007108B100700816
:10055000B0008A118A248A11861FAC2A0519FD0A67
:1005600010307D02031CBA2AFD01FC0ABA2AFD01E3
:10057000FD0AFC01051D2B2A2E2A07112E08F0006A
:10058000F101F201F30183162408F0072508031195
:100590000318013E031DF107260803110318013E4D
:1005A000031DF207270803110318013E031DF3077B
:1005B00083126B08F4006C08F500F601F701EB23D9
:1005C0008A117308A3007208A2007108A1007008C4
:1005D000A000FF30A40011301E24BF00C001400461
:1005E000031D8714FF308A11BC278A11FE3A031DB0
:1005F000F22AC901CA012D084A06031D012B2C0845
:100600004906031D092BFF308A11BC278A11C3003C
:10061000602B2C08013E51248A11031D152BFF303D
:100620008A11BC278A11C400602B2C08063E512475
:100630008A11031D212BFF308A11BC278A11C100AA
:10064000602B2C08073E51248A11031D2D2BFF30EF
:100650008A11BC278A11C200602B2C08083E512445
:100660008A11031D392BFF308A11BC278A11C5005E
:10067000602B2C08093E51248A11031D452BFF30A5
:100680008A11BC278A11C600602B2C080A3E51240F
:100690008A11031D512BFF308A11BC278A11C70014
:1006A000602B2C080B3E51248A11FF30031D5D2B5B
:1006B0008A11BC278A11C800602B8A11BC278A11B5
:1006C000C90A0319CA0A02304A0200300319490252
:1006D000031CFB2AFF308A11BC278A11FF308A11C4
:1006E000BC278A110715FF308A11BC278A114408DC
:1006F000B200B101B001AF0143087F248A11420862
:1007000073248A1141085D248A11E0003008340402
:10071000E10031083504E20032083604E3004808FD
:10072000B200B101B001AF0147087F248A11460829
:1007300073248A1145085D248A118316A000831250
:10074000300834048316A10083123108350483165F
:10075000A2008312320836048316A30001308312EC
:10076000AF00B001B101B201831620088312B300BB
:10077000831621088312B400831622088312B50061
:10078000831623088312B60009300310B60CB50C8B
:10079000B40CB30CFF3E031DC52B3308AF07340860
:1007A0000318340FB00735080318350FB1073608A2
:1007B0000318360AB20732088316A30083123108E1
:1007C0008316A200831230088316A10083122F081B
:1007D0008316A0000800F801F901FA01FB01701C62
:1007E000052C7408F807750803110318013E031D52
:1007F000F907760803110318013E031DFA0777086D
:1008000003110318013E031DFB070310F40DF50D42
:10081000F60DF70D0310F30CF20CF10CF00C73084D
:10082000720471047004031DEF2B7B08F3007A0837
:10083000F2007908F1007808F0000800A9004038BB
:100840007F398A11BC278A11A501A601A7012308B7
:10085000A800A500A601A701A8018A11BC278A113A
:1008600022088A11BC278A1121088A11BC278A1103
:1008700020088A11BC278A11240801388A11BC2754
:100880008A11AB01FF308A11BC278A11AA00FF3AF6
:10089000031D4F2CAB0A0A302B02031C422C2A08E2
:1008A0000800AF002D080318013E003EB0004A06C4
:1008B000031D080049082F060800BB00BC01BD014C
:1008C000BE01B7043C08B8043D08B9043E08BA04A8
:1008D0003708B3043808B4043908B5043A08B60434
:1008E0002F0833040800B700B801B901BA0139086C
:1008F000BA003808B9003708B800B7010800B300DB
:10090000B401B501B6013408B6003308B500B4012E
:10091000B301080083120711831633088312A30062
:10092000831632088312A200831631088312A100B5
:10093000831630088312A000FF30A40012308A1101
:100940001E248A11B000B10131040319DD2C871473
:10095000DD2CFF30BC278A11FE3A031DA92CB20101
:10096000B3010B1DB12CA530831281000B11FF3098
:10097000BC278A11B4009712341CC22C83120313B3
:100980001716C52C8312031317123408AC0003107A
:10099000AC0C0310AC0C2C089500B20A0319B30A76
:1009A00002303302003003193202031CB12CFF3035
:1009B000BC278A11FF30BC278A110519861F092D13
:1009C0000130AC00AD01AE01AF018316A00283126D
:1009D0002D08031C2D0FED2CEF2C8316A102831282
:1009E0002E08031C2E0FF52CF72C8316A20283125F
:1009F0002F08031C2F0FFD2CFF2C8316A302831638
:100A0000200A0319210A0319220A0319230A031DC4
:100A1000A92C8312F3270C308A111E248A11FF306F
:100A2000BC278A11FF30BC278A110715FF30BC2F65
:100A30000715B001FF30BC278A11B00A0A30300216
:100A4000031C1A2D07116430B0002E2DB0080319B5
:100A50003B2D0715FF30BC270711B003A001A101F2
:100A6000A201A3019530A40000308A111E248A112E
:100A7000013A031D262DB00803198714A301A20112
:100A80000130A100AA30A0008730A40008308A11EC
:100A90001E248A11013A031D7C2DFF30BC278A11C8
:100AA000AC00FF30BC278A11AD00FF30BC278A1193
:100AB000AE00FF30BC278A11AF002E0B7D2D2F0812
:100AC000AA3A031D7D2DA001A101A201A301FF30BF
:100AD000A40037308A111E248A114030A300A201DD
:100AE000A101A001FF30A40029308A111E248A111F
:100AF000003803197D2D632D8714F3273A308A11AE
:100B00001E248A110038031D9B2DFF30BC278A113B
:100B1000AC00FF30BC278A11AD00FF30BC278A1122
:100B2000AE00FF30BC278A11AF002C08EA0040302D
:100B3000EA052C1B071694100715FF30BC2F071170
:100B4000F32711308A111E248A11CC00CD014D04E7
:100B5000031D8714FF30BC278A11FE3A031DAA2DFE
:100B6000CE01CF014F03C63003194E06031DBD2D24
:100B7000FF30BC278A11C000E02D4F03C730031996
:100B80004E06031DC82DFF30BC278A11C100E02D81
:100B90004F03C83003194E06031DD32DFF30BC2769
:100BA0008A11C200E02D4F03C93003194E06FF30F1
:100BB000031DDE2DBC278A11C300E02DBC278A113E
:100BC000FA278A1103194E02031CB22DFF30BC27ED
:100BD0008A11FF30BC278A110715FF30BC278A1104
:100BE0004308AF00AE01AD01AC014208E8278A110D
:100BF0004108DC278A114008C627D8002D08310497
:100C0000D9002E083204DA002F083304DB00071164
:100C10006B08F0006C08F100F201F3015B08F700CB
:100C20005A08F6005908F5005808F4008A11EB2319
:100C30008A117308A3007208A2007108A10070084D
:100C4000A000FF30A40011308A111E248A11CC00AC
:100C5000CD014D04031D8714FF30BC278A11FE3AD5
:100C6000031D2C2ECE01CF014E080B3A4F04031D5D
:100C70003E2EFF30BC278A11BC00C22E4E080C3A13
:100C80004F04031D482EFF30BC278A11BD00C22E21
:100C90004E080D3A4F04031D522EFF30BC278A1117
:100CA000E900C22E4E080E3A4F04031D5C2EFF30A1
:100CB000BC278A11BE00C22E4E080F3A4F04031DF6
:100CC000662EFF30BC278A11BF00C22E4E08103A94
:100CD0004F04031D702EFF30BC278A11E800C22E7E
:100CE0004E08243A4F04031D7A2EFF30BC278A1188
:100CF000C400C22E4E08253A4F04031D842EFF3037
:100D0000BC278A11C500C22E4E08263A4F04031D87
:100D10008E2EFF30BC278A11C600C22E4E08273AFD
:100D20004F04031D982EFF30BC278A11C700C22E26
:100D30004E082C3A4F04031DA22EFF30BC278A1107
:100D4000C800C22E4E082D3A4F04031DAC2EFF30B2
:100D5000BC278A11C900C22E4E082E3A4F04031D2B
:100D6000B62EFF30BC278A11CA00C22E4E082F3A79
:100D70004F04FF30031DC02EBC278A11CB00C22EAA
:100D8000BC278A11FA278A1103194E02031C342E3C
:100D9000FF30BC278A11FF30BC278A110715FF30AE
:100DA000BC278A113C08E400E5013D08AC00AD0118
:100DB0000830FF000310AC0DAD0DFF0BDA2E2C0830
:100DC000E4042D08E5043E08E600E7013F08AC0016
:100DD000AD010830FF000310AC0DAD0DFF0BEB2E85
:100DE0002C08E6042D08E7044B08AF00AE01AD0166
:100DF000AC014A08E8278A114908DC278A1148080B
:100E0000C6278A118316A80083122D083104831681
:100E1000A90083122E0832048316AA0083122F0819
:100E200033048316AB0083124708AF00AE01AD0157
:100E3000AC014608E8278A114508DC278A114408D6
:100E4000C6278316AC0083122D0831048316AD002B
:100E500083122E0832048316AE0083122F08330447
:100E60008316AF0083126808F000F101F201F3016C
:100E700083162F08F7002E08F6002D08F5002C0821
:100E8000F4008A11EB238A1173088312DF007208C1
:100E9000DE007108DD007008DC006608AC00670841
:100EA000AD00AE01AF012C08DC072D0803110318BB
:100EB000013E031DDD072E0803110318013E031D2B
:100EC000DE072F0803110318013E031DDF07580832
:100ED000DC07590803110318013E031DDD075A08FA
:100EE00003110318013E031DDE075B0803110318FD
:100EF000013E031DDF0783162B08F3002A08F200CA
:100F00002908F1002808F000FE30F007FF30031C2C
:100F1000F107031CF207031CF30783126908F400AE
:100F2000F501F601F7018A11EB2373088316A70078
:100F30007208A6007108A5007008A40083125C085E
:100F40008316A40783125D0803110318013E83165C
:100F5000031DA50783125E0803110318013E8316C3
:100F6000031DA60783125F0803110318013E8316B1
:100F7000031DA70783160800F00070088312930072
:100F80008316141CC02F831213080800B800B9017F
:100F9000BA01BB01B4043908B5043A08B6043B08E9
:100FA000B7043408B0043508B1043608B204370871
:100FB000B3042C0830040800B400B501B601B70131
:100FC0003608B7003508B6003408B500B40108008B
:100FD000B000B101B201B3013108B3003008B20072
:100FE000B101B0010800A001A101A201A301FF30DD
:100FF000A4000800CE0A0319CF0A02304F020034C1
:02400E00D23CA2
:00000001FF
