:040000008A11EF2D45
:100BDE00A001A101A201A301A40183018A11F72D95
:100BEE00713083168F00831203179E019F014030D0
:100BFE0083160313870006308500BF3086008113ED
:100C0E009514151583120317951695171F140313B4
:100C1E000710871007120C3097006430831692006D
:100C2E00043083129200503083169F00A03083123E
:100C3E009F003230940007158A11CE268A1124089F
:100C4E0003192F2E0A30A000A101A201A301362EF6
:100C5E000030A300A2001430A1000030A000861BBB
:100C6E003B2E8A114E278A11861A402E8A11432650
:100C7E008A110519362E262E0711EF278A111230EA
:100C8E009E268A11A500A601260403198D2E87140F
:100C9E008D2EFF30E5278A11FE3A031D502EA70137
:100CAE00A8018C1C582EFF30E5278A11A900291C9B
:100CBE00642E831203139716672E83120313971253
:100CCE000310290C95008C10A70A0319A80A0230EC
:100CDE002802003003192702031C582EFF30E52787
:100CEE008A11FF30E5278A1124080319862EA00ADF
:100CFE000319A10A0319A20A0319A30A8D2E0230A1
:100D0E00A10701300318A2070318A30A051D912E8F
:100D1E008518502EF101FA278A110C309E268A1161
:100D2E00FF30E5278A11FF30E52707150800FA0086
:100D3E00FF30E5278A117A0840387F39E5278A1176
:100D4E00F601F701F8017408F900F600F701F80151
:100D5E00F901E5278A117308E5278A117208E5273C
:100D6E008A117108E5278A1175080138E5278A115D
:100D7E00FC01FF30E5278A11FB00FF3A031DCC2E44
:100D8E00FC0A0A307C02031CC02E7B0808000715E3
:100D9E00A901FF30E5278A11A90A0A302902031C8E
:100DAE00D02E07116430A900E52EA9080319F12EE3
:100DBE000715FF30E5278A110711A903F101F2018A
:100DCE00F301F4019530F50000309E268A11013AA8
:100DDE00031DDC2EA90803198714F401F301013059
:100DEE00F200AA30F1008730F50008309E268A11F5
:100DFE00013A031D2C2FFF30E5278A11A500FF3085
:100E0E00E5278A11A600FF30E5278A11A700FF30DB
:100E1E00E5278A11A800270B2D2F2808AA3A031DB3
:100E2E002D2FF101FA278A1137309E268A11403074
:100E3E00F400F301F201F101FF30F50029309E2696
:100E4E008A11003803192D2F182F8714F101FA2754
:100E5E008A113A309E268A110038031D4B2FFF301F
:100E6E00E5278A11A500FF30E5278A11A600FF307D
:100E7E00E5278A11A700FF30E527A8002508A40062
:100E8E004030A405251B07169410071508000711FE
:100E9E001F140714EF278A1119309E268A11A500F8
:100EAE00A601260403195E2F87141F100710FF30AA
:100EBE00E5278A11FF30E5278A11FF30E5278A11D1
:100ECE00CE2FFC30E5278A11A701A8019F148C1C98
:100EDE006E2F83161E08E5278A118C1083161E1C92
:100EEE007C2F8312031397167F2F831203139712EF
:100EFE00831603101E0C83129500A70A0319A80A65
:100F0E0002302802003003192702031C6D2FFF3018
:100F1E00E5278A11FF30E5278A11FF30E5278A1170
:100F2E000F39A500A601053A2604031DB52F103072
:100F3E00A7002730A800FF30E5278A11A500A601DB
:100F4E002604031DB62F0130A7020030031CA80390
:100F5E00A802280827040319B62FA22F8714FF30E2
:100F6E00E5278A11FF3A031DB62F24080319C72F50
:100F7E00A00A0319A10A0319A20A0319A30ACE2F64
:100F8E000230A10701300318A2070318A30A051D9A
:100F9E00D22F8518682FFD30E5278A11FF30E527FF
:100FAE008A11FF30E5278A11FF30E5278A11FF3AB3
:100FBE00031DDB2F07151F1007100800F000700827
:100FCE00831293008316141CE92F83121308080052
:100FDE002308F4002208F3002108F2002008F10093
:100FEE00FF30F5000800F201F301F401FF30F500C7
:020FFE000800E9
:02400E00D23CA2
:00000001FF
