:060000000A128A11912989
:1003120064008001840A04060319003404068A2951
:100322008313583084006D300A128A1189210A120F
:100332008A11A0308400B4300A128A118921830103
:100342000A128A11A429FD01FD0AFC0190308316CC
:1003520087000F30860081138312061207130C30B8
:1003620097003F30831692000430831292000B30C4
:100372009D005B309B009C01013090003230940064
:1003820007140A128A11A5240A128A116A0803198B
:10039200CE29EB01EB0AEC01D129EB010230EC0092
:1003A2000A128A1139250A128A1183126508023A41
:1003B2006404031D0616861C732ADC297D08AC0022
:1003C200AD0105300310AC0DAD0DFF3E031DE32959
:1003D2001430AC070318AD0A7C08AE000A128A1169
:1003E20009230A128A1183126308620461046004F9
:1003F2000319702A0130D000D101D201D301630860
:10040200F3006208F2006108F1006008F000FE30BB
:10041200F007FF30031CF107031CF207031CF3076C
:100422006908F400F501F601F7010A128A113F2466
:100432000A128A1170085C07D400003003180130D8
:100442007107D6010318D60A5D07D5000318D60A2C
:1004520072085607D7010318D70A5E07D600031899
:10046200D70A730857075F07D7005408D007550803
:100472000318550FD10756080318560FD20757080D
:100482000318570AD3075308F3005208F200510821
:10049200F1005008F0006B08F4006C08F500F6015A
:1004A200F7010A128A113F240A128A11730883166D
:1004B200B3007208B2007108B1007008B0000A12ED
:1004C2008A1176220A128A11061D652A0618FD0A69
:1004D20010307D02031C732AFD01FC0A732AFD0100
:1004E200FD0AFC01061CDC29DF2983120710831692
:1004F20033088312A300831632088312A2008316E4
:1005020031088312A100831630088312A000FF3045
:10051200A400123072240A128A11B000B10131040F
:100522000319CA2A0616CA2AFF3078270A128A1124
:10053200FE3A031D952AB201B3010D1C9E2AFF301B
:1005420078270A128A11B4009712341CAC2A83123B
:1005520003131716AF2A8312031317123408AC00C1
:100562000310AC0C0310AC0C2C0895000D10B20A51
:100572000319B30A02303302003003193202031C9A
:100582009E2AFF3078270A128A11FF3078270A1232
:100592008A110618061DF62A0130AC00AD01AE0123
:1005A200AF018316A00283122D08031C2D0FDA2A35
:1005B200DC2A8316A10283122E08031C2E0FE22AC4
:1005C200E42A8316A20283122F08031C2F0FEA2AA1
:1005D200EC2A8316A3028316200A0319210A03199F
:1005E200220A0319230A031D952A8312F3270A12EA
:1005F2008A110C3072240A128A11FF3078270A12EB
:100602008A11FF3078270A128A110714FF30782FD7
:1006120007102E08F000F101F201F30183162408FD
:10062200F007250803110318013E031DF1072608F0
:1006320003110318013E031DF207270803110318D3
:10064200013E031DF30783126B08F4006C08F500EA
:10065200F601F7013F240A128A11DD270A128A11D4
:1006620072240A128A11BF00C0014004031D06163B
:10067200FF3078270A128A11FE3A031D392BC9016D
:10068200CA012D084A06031D482B2C084906031DE2
:10069200502BFF3078270A128A11C300AE2B2C0888
:1006A200013E82270A128A11031D5D2BFF30782733
:1006B2000A128A11C400AE2B2C08063E82270A12A7
:1006C2008A11031D6A2BFF3078270A128A11C10092
:1006D200AE2B2C08073E82270A128A11031D772BA4
:1006E200FF3078270A128A11C200AE2B2C08083E6E
:1006F20082270A128A11031D842BFF3078270A12DF
:100702008A11C500AE2B2C08093E82270A128A11D3
:10071200031D912BFF3078270A128A11C600AE2BD7
:100722002C080A3E82270A128A11031D9E2BFF30D3
:1007320078270A128A11C700AE2B2C080B3E82279B
:100742000A128A11FF30031DAB2B78270A128A1175
:10075200C800AE2B78270A128A11C90A0319CA0ADD
:1007620002304A02003003194902031C422BFF30B7
:1007720078270A128A11FF3078270A128A11071481
:10078200FF3078270A128A114408B200B101B00181
:10079200AF014308E8270A128A114208D1270A1238
:1007A2008A114108A4270A128A11E0003008340491
:1007B200E10031083504E20032083604E30048085B
:1007C200B200B101B001AF014708E8270A128A114D
:1007D2004608D1270A128A114508A4270A128A114B
:1007E2008316A0008312300834048316A1008312FA
:1007F200310835048316A2008312320836048316A8
:10080200A30001308312AF00B001B101B20183161F
:1008120020088312B300831621088312B4008316C2
:1008220022088312B500831623088312B60009300A
:100832000310B60CB50CB40CB30CFF3E031D192CFF
:100842003308AF0734080318340FB007350803180C
:10085200350FB10736080318360AB2073208831675
:10086200A300831231088316A20083123008831674
:10087200A10083122F088316A0000800F801F901D5
:10088200FA01FB01701C592C7408F8077508031152
:100892000318013E031DF907760803110318013EF0
:1008A200031DFA07770803110318013E031DFB0716
:1008B2000310F40DF50DF60DF70D0310F30CF20C09
:1008C200F10CF00C7308720471047004031D432CC4
:1008D2007B08F3007A08F2007908F1007808F0004A
:1008E2000800A90040387F3978270A128A11A50129
:1008F200A601A7012308A800A500A601A701A80137
:1009020078270A128A11220878270A128A112108E6
:1009120078270A128A11200878270A128A112408D5
:10092200013878270A128A11AB01FF3078270A12A0
:100932008A11AA00FF3A031DA32CAB0A0A302B022C
:10094200031C962C2A0808000714B001FF307827F0
:100952000A128A11B00A0A303002031CA72C0710AF
:100962006430B000BE2CB0080319CB2C0714FF3042
:1009720078270A128A110710B003A001A101A2016F
:10098200A3019530A400003072240A128A11013AA0
:10099200031DB42CB00803190616A301A2010130ED
:1009A200A100AA30A0008730A400083072240A12E5
:1009B2008A11013A031D102DFF3078270A128A117D
:1009C200AC00FF3078270A128A11AD00FF30782779
:1009D2000A128A11AE00FF3078270A128A11AF007C
:1009E2002E0B112D2F08AA3A031D112DA001A101D2
:1009F200A201A301FF30A400373072240A128A1127
:100A02004030A300A201A101A001FF30A4002930BF
:100A120072240A128A1100380319112DF72C0616B6
:100A2200F3270A128A113A3072240A128A11003804
:100A3200031D352DFF3078270A128A11AC00FF30D2
:100A420078270A128A11AD00FF3078270A128A111C
:100A5200AE00FF3078270A128A11AF002C08EA0094
:100A62004030EA052C1B071794100714FF30782F2B
:100A72000710F3270A128A11113072240A128A11FE
:100A8200CC00CD014D04031D0616FF3078270A1253
:100A92008A11FE3A031D462DCE01CF014F03C63007
:100AA20003194E06031D5B2DFF3078270A128A11A7
:100AB200C000822D4F03C73003194E06031D672D58
:100AC200FF3078270A128A11C100822D4F03C830E5
:100AD20003194E06031D732DFF3078270A128A115F
:100AE200C200822D4F03C93003194E06FF30031D89
:100AF2007F2D78270A128A11C300822D78270A12C5
:100B02008A11FA270A128A1103194E02031C4F2D69
:100B1200FF3078270A128A11FF3078270A128A11C9
:100B22000714FF3078270A128A114308AF00AE017A
:100B3200AD01AC014208C6270A128A114108BA2740
:100B42000A128A1140088E270A128A11D8002D082B
:100B52003104D9002E083204DA002F083304DB00F6
:100B620007106B08F0006C08F100F201F3015B085A
:100B7200F7005A08F6005908F5005808F4003F2417
:100B82000A128A11DD270A128A1172240A128A11A4
:100B9200CC00CD014D04031D0616FF3078270A1242
:100BA2008A11FE3A031DCE2DCE01CF014E080B3A1B
:100BB2004F04031DE22DFF3078270A128A11BC0070
:100BC200742E4E080C3A4F04031DED2DFF3078278A
:100BD2000A128A11BD00742E4E080D3A4F04031DED
:100BE200F82DFF3078270A128A11E900742E4E0878
:100BF2000E3A4F04031D032EFF3078270A128A1182
:100C0200BE00742E4E080F3A4F04031D0E2EFF3005
:100C120078270A128A11BF00742E4E08103A4F0428
:100C2200031D192EFF3078270A128A11E800742E4C
:100C32004E08243A4F04031D242EFF3078270A124F
:100C42008A11C400742E4E08253A4F04031D2F2E1C
:100C5200FF3078270A128A11C500742E4E08263AF0
:100C62004F04031D3A2EFF3078270A128A11C6005C
:100C7200742E4E08273A4F04031D452EFF30782765
:100C82000A128A11C700742E4E082C3A4F04031D13
:100C9200502EFF3078270A128A11C800742E4E088F
:100CA2002D3A4F04031D5B2EFF3078270A128A115A
:100CB200C900742E4E082E3A4F04031D662EFF30D3
:100CC20078270A128A11CA00742E4E082F3A4F044E
:100CD200FF30031D712E78270A128A11CB00742E61
:100CE20078270A128A11FA270A128A1103194E0268
:100CF200031CD72DFF3078270A128A11FF3078277C
:100D02000A128A110714FF3078270A128A113C0846
:100D1200E400E5013D08AC00AD010830FF0003101E
:100D2200AC0DAD0DFF0B902E2C08E4042D08E5044C
:100D32003E08E600E7013F08AC00AD010830FF00C5
:100D42000310AC0DAD0DFF0BA12E2C08E6042D08EF
:100D5200E7044B08AF00AE01AD01AC014A08C6275B
:100D62000A128A114908BA270A128A1148088E27DC
:100D72000A128A118316A80083122D0831048316E1
:100D8200A90083122E0832048316AA0083122F08A8
:100D920033048316AB0083124708AF00AE01AD01E6
:100DA200AC014608C6270A128A114508BA270A1258
:100DB2008A1144088E270A128A118316AC00831204
:100DC2002D0831048316AD0083122E0832048316D7
:100DD200AE0083122F0833048316AF008312680813
:100DE200F000F101F201F30183162F08F7002E083B
:100DF200F6002D08F5002C08F4003F240A128A118F
:100E020073088312DF007208DE007108DD007008CB
:100E1200DC006608AC006708AD00AE01AF012C082B
:100E2200DC072D0803110318013E031DDD072E0800
:100E320003110318013E031DDE072F0803110318D7
:100E4200013E031DDF075808DC0759080311031888
:100E5200013E031DDD075A0803110318013E031D5D
:100E6200DE075B0803110318013E031DDF0783162B
:100E72002B08F3002A08F2002908F1002808F000E4
:100E8200FE30F007FF30031CF107031CF207031CBE
:100E9200F30783126908F400F501F601F7013F2414
:100EA20073088316A7007208A6007108A5007008CF
:100EB200A40083125C088316A40783125D08031141
:100EC2000318013E8316031DA50783125E08031152
:100ED2000318013E8316031DA60783125F08031140
:100EE2000318013E8316031DA70783160800F000AE
:100EF2007008831293008316141C7C2F831213082C
:100F02000800AF002D080318013E003EB0004A065B
:100F1200031D080049082F060800B800B901BA01EC
:100F2200BB01B4043908B5043A08B6043B08B70457
:100F32003408B0043508B1043608B2043708B304E3
:100F42002C0830040800BB00BC01BD01BE01B7047F
:100F52003C08B8043D08B9043E08BA043708B30493
:100F62003808B4043908B5043A08B6042F08330423
:100F72000800B400B501B601B7013608B70035085C
:100F8200B6003408B500B4010800B000B101B201E6
:100F9200B3013108B3003008B200B101B00108005A
:100FA200B700B801B901BA013908BA003808B90066
:100FB2003708B800B70108007308A3007208A2003E
:100FC2007108A1007008A000FF30A4001134B30022
:100FD200B401B501B6013408B6003308B500B40156
:100FE200B3010800A001A101A201A301FF30A400E6
:0E0FF2000800CE0A0319CF0A02304F02003465
:02400E007A3FF7
:00000001FF
